:020000040800F2
:10000000D806002029020008310200083302000847
:10001000350200083702000839020008000000001D
:100020000000000000000000000000003B0200088B
:100030003D020008000000003F020008B10800086F
:10004000430200084302000843020008430200087C
:10005000430200084302000843020008430200086C
:10006000430200084302000843020008430200085C
:10007000430200084302000843020008430200084C
:10008000430200084302000843020008430200083C
:10009000430200084302000843020008430200082C
:1000A000430200084302000843020008430200081C
:1000B000430200084302000843020008430200080C
:1000C00043020008430200084302000843020008FC
:1000D00043020008430200084302000843020008EC
:1000E00043020008430200084302000843020008DC
:1000F00043020008430200084302000843020008CC
:1001000043020008430200084302000843020008BB
:1001100043020008430200084302000843020008AB
:10012000430200084302000843020008430200089B
:10013000430200084302000843020008430200088B
:10014000430200084302000843020008430200087B
:10015000430200084302000843020008430200086B
:10016000430200084302000843020008430200085B
:100170004302000843020008430200080000000098
:10018000430200084302000800F002F800F03CF8C7
:100190000AA090E8000C82448344AAF10107DA45E2
:1001A00001D100F031F8AFF2090EBAE80F0013F0F8
:1001B000010F18BFFB1A43F0010318478C09000018
:1001C000AC090000103A24BF78C878C1FAD85207A9
:1001D00024BF30C830C144BF04680C6070470000C1
:1001E0000023002400250026103A28BF78C1FBD840
:1001F000520728BF30C148BF0B6070471FB500F0E1
:100200009AFC1FBD10B510BD00F0C7F81146FFF7EE
:10021000F5FF00F075FC00F0E5F803B4FFF7F2FF1E
:1002200003BC00F0EDF8000009488047094800478A
:10023000FEE7FEE7FEE7FEE7FEE7FEE7FEE7FEE796
:10024000FEE7FEE704480549054A064B70470000F3
:10025000C108000889010008D8000020D806002045
:10026000D8020020D802002053EA020C00F0698076
:100270002DE9F04B4FF00006002B1FBFB3FA83F5BA
:1002800003FA05F424FA05F65E4012BF1643B2FAEB
:1002900082F502FA05F4C5F120051EBF22FA05FC1D
:1002A00044EA0C04203556EA044C4FEA144418BFC3
:1002B000641C4FF000084FF00009904271EB030CF2
:1002C00039D3002919BFB1FA81F701FA07F6B0FA5C
:1002D00080F700FA07F6C7F120071EBF20FA07FCD7
:1002E00046EA0C062037B6FBF4FCA7EB0507103FE7
:1002F00007F01F0BCBF120062CFA06F60CFA0BFBCD
:1003000044BFB3460026202FA4BF5E464FF0000B2B
:100310005BEA060C08BF4FF0010B19EB0B0948EB29
:100320000608ABFB027C06FB02CC0BFB03CCC01B1C
:1003300071EB0C01C1E70B46024641464846BDE859
:10034000F08B13B54FF000004FF00001AFF30080C9
:10035000BDE81C40704710B5431C02E010F8011BBB
:1003600071B18107FAD14FF0013202C88C1A8C4367
:1003700014EAC211F9D0C01A0A0603D0C01E10BD7B
:10038000C01A10BD0A0401D0801E10BD0902FCD0A5
:10039000401E10BD704770477047754600F02CF83E
:1003A000AE4605006946534620F00700854618B062
:1003B00020B5FFF747FFBDE820404FF000064FF0A3
:1003C00000074FF000084FF0000BAC46ACE8C00946
:1003D000ACE8C009ACE8C009ACE8C00921F00701ED
:1003E0008D46704710B50446AFF300802046BDE847
:1003F0001040FFF712BF0000004870473000002097
:1004000001491820ABBEFEE726000200704700003D
:1004100081B000904FF0FF304FF47A61009A4A4368
:1004200001309042FADB01B0704700002DE9F04F37
:1004300082B041F60042C4F202020827904208BF8F
:10044000072700F13E4202F1FF724FEAB223072B69
:1004500038BF4FEAB22700974FF0010A4FF0030B65
:1004600043F6004EC4F2010E002500244FF00008B0
:100470000AE000BF0435023408F10108B8F1100F9A
:1004800004BF02B0BDE8F08F0AFA08F90E6816EA58
:10049000090CEFD04E6806F00306013E012E15D878
:1004A0000BFA04F6D0F808B02BEA06064FF0030B5F
:1004B000CA68A24032438260426822EA09024E685A
:1004C000C6F3001606FA08F6324342604A6802F0A4
:1004D0000302032A08D00BFA04F2C66826EA0202D5
:1004E0008E68A6403243C2604A6802F00302022AC4
:1004F00013D105F01C020F2303FA02F64FF6FC732A
:10050000C7F6FF7303EA580303441F6A27EA060687
:100510000F6907FA02F232431A620BFA04F2036817
:1005200023EA02024B6803F00303A3401A4302606C
:100530008A7992079ED00022019243F64402C4F2C7
:10054000020213461A6842F480421A601A6802F4E2
:100550008042019228F003027244019B4FF6084347
:10056000CFF6FF73994652F8093005F00C060F27B5
:10057000B740BB43009F07FA06F6334342F8093001
:10058000DEF8082022EA0C024B6813F4801F18BF23
:1005900042EA0C02CEF8082043F60C42C4F20102F3
:1005A0001646326822EA0C024B6813F4001F18BF8B
:1005B00042EA0C023260DEF8042022EA0C024B68A8
:1005C00013F4003F18BF42EA0C02CEF80420DEF814
:1005D000002022EA0C024B6813F4803F18BF42EA65
:1005E0000C02CEF8002045E740F2D400C2F2000031
:1005F0000068704740F22800C2F20000007840F224
:10060000D401C2F200010A6810440860704700007B
:1006100080B543F60040C4F20200016841F4007165
:100620000160016841F480610160032000F040F83E
:100630000F2000F005F800F029F8002080BD000030
:10064000B0B5044640F22800C2F2000000784FF432
:100650007A71B1FBF0F040F22401C2F200010968A6
:10066000B1FBF0F000F052F801250F2C0CD858B96E
:1006700000254FF0FF302146002200F009F840F23B
:100680002C00C2F2000004602846B0BD7047000094
:1006900070B514460D46064600F008FA2946224673
:1006A00000F0D0F801463046BDE8704000F006BAD0
:1006B00000F016BA40F22400C2F200000068704751
:1006C00080B5FFF7F7FF43F60801C4F2020109689D
:1006D000C1F3822140F64032C0F60002515CC840AE
:1006E00080BD000080B5FFF7E5FF43F60801C4F2C6
:1006F00002010968C1F3423140F64032C0F60002FF
:10070000515CC84080BD00007047000000F0B6B8E2
:10071000FFF7FABF10B50446002C04BF012010BD3E
:1007200094F83D0028B9002084F83C00204600F0F1
:1007300023F8242084F83D002068C16821F400518A
:10074000C160204600F004F92068016921F490415D
:1007500001612068416921F02A0141612068C16876
:1007600041F40051C16000202064202184F83D1034
:1007700084F83E1010BD0000704700002DE9F047DE
:10078000994616460D46044694F83D00202808D1A7
:100790000120002D18BF002E50D094F83C000128F5
:1007A00003D10220C0B2BDE8F087012084F83C00EC
:1007B0004FF0000AC4F840A0212084F83D00FFF764
:1007C00013FF8046A684E684A068B0F5805F07D159
:1007D0002769002F4FF000060CBF2E462F4601E080
:1007E0002F46002684F83CA003E000BFE08C0138CF
:1007F000E084E08C98B12046802142464B4600F0D0
:1008000017F998B920681FB117F8011B4160EDE78F
:1008100036F8021B6FF35F2141600027E6E72046B0
:10082000402142464B4600F003F918B10320C0B204
:10083000BDE8F087202084F83D000020C0B2BDE86C
:10084000F087000000F0070000F1040CC31EBCF1AB
:10085000070F38BF002380F00700042828BF0420BA
:100860004FF0010C0CFA00F00138084098400CFAE7
:1008700003F101391140084370470000B0B5013859
:100880000024B4EB106F1EBF01242046B0BD4EF211
:100890001005CEF2000568604FF0FF304FF00F01F9
:1008A00000F00CF9AC604FF0070028602046B0BDA6
:1008B00080B5FFF79FFEBDE88040FFF729BF00002D
:1008C0004EF68850CEF20000016841F470010160DC
:1008D0007047000070B586B00024019443F63000E4
:1008E000C4F20200016841F001010160016801F0F9
:1008F0000101019101990194016941F40031016103
:10090000006900F40030019001980C250195022047
:10091000029001200390032004900720059044F2E8
:100920000046C4F2000606F5DE3001A9FFF77EFDA1
:1009300040F29000C2F2000006604FF4E1314561E0
:10094000C0E90114C460C461FFF7E4FE06B070BDE5
:1009500010B5044620680169E26821F44051114352
:1009600001612068A168D4E9042311431943E269B5
:100970001143C26849F20C639A431143C160206875
:100980004169A26921F4407111434161206840F43A
:10099000806041F20041C4F20101884202D1FFF7B8
:1009A000A1FE01E0FFF78CFE1921A0FB01016368A5
:1009B000E269B2F5004F1CD15A00DB0FFFF754FC7F
:1009C00048F21F51C5F2EB11A0FB01235A096FF049
:1009D000630302FB0300322303EBC000A0FB010111
:1009E0004FF4F87000EA111000EB0210C1F342114D
:1009F0001AE09A009B0FFFF737FC48F21F51C5F22F
:100A0000EB11A0FB01235A096FF0630302FB030003
:100A1000322303EB0010A0FB0101F02000EA51108B
:100A200000EB0210C1F3431108432168886010BD38
:100A30002DE9F0411D4690460F46044620680068A7
:100A40003840B8420DD06E1C36B17DB1FFF7CCFDF9
:100A5000A0EB0800A84209D8206800683840B842D6
:100A6000F2D10020C0B2BDE8F08100BF206850E89C
:100A7000030F216820F4D07041E80302002AF5D169
:100A8000206850E8050F216820F0010041E80502C8
:100A9000002AF5D1202084F83D0084F83E00002093
:100AA00084F83C000320C0B2BDE8F0814EF60C5043
:100AB000CEF200000068C0F30220704700F1604CE5
:100AC00000F00F034EF61452CEF200021A44B0F1B9
:100AD000FF3FC8BF0CF5644208011070704700006A
:100AE0004EF60C51CEF200010A684FF6FF031A4091
:100AF00060F30A2242F0806040F0FD7008607047A9
:100B0000B0B5FFF785FDFFF7E5FE40F20004C2F245
:100B1000000440F29005C2F2000500BF2046FFF736
:100B20001AFC82B2284621460A23FFF727FE6420DA
:100B3000FFF76EFCF2E74FF04070E1EE100A7047ED
:100B40000000000001020304680B00080000002000
:100B500030000000C4010008980B0008300000209D
:100B6000A8060000E001000857656C636F6D652002
:100B7000746F204D6963726F636F6E74726F6C6C0B
:100B8000657273204C61620D0A0000000024F400BD
:080B900001000000100000004C
:040000050800018965
:00000001FF
