:020000040800F2
:10000000D806002029020008310200083302000847
:10001000350200083702000839020008000000001D
:100020000000000000000000000000003B0200088B
:100030003D020008000000003F02000855090008CA
:10004000430200084302000843020008430200087C
:10005000430200084302000843020008430200086C
:10006000430200084302000843020008430200085C
:10007000430200084302000843020008430200084C
:10008000430200084302000843020008430200083C
:10009000430200084302000843020008430200082C
:1000A000430200084302000843020008430200081C
:1000B000430200084302000843020008430200080C
:1000C00043020008430200084302000843020008FC
:1000D00043020008430200084302000843020008EC
:1000E00043020008430200084302000843020008DC
:1000F00043020008430200084302000843020008CC
:1001000043020008430200084302000843020008BB
:1001100043020008430200084302000843020008AB
:10012000430200084302000843020008430200089B
:10013000430200084302000843020008430200088B
:10014000430200084302000843020008430200087B
:10015000430200084302000843020008430200086B
:10016000430200084302000843020008430200085B
:100170004302000843020008430200080000000098
:10018000430200084302000800F002F800F03CF8C7
:100190000AA090E8000C82448344AAF10107DA45E2
:1001A00001D100F031F8AFF2090EBAE80F0013F0F8
:1001B000010F18BFFB1A43F001031847540A00004F
:1001C000740A0000103A24BF78C878C1FAD85207E0
:1001D00024BF30C830C144BF04680C6070470000C1
:1001E0000023002400250026103A28BF78C1FBD840
:1001F000520728BF30C148BF0B6070471FB500F0E1
:10020000F6FC1FBD10B510BD00F0C8F81146FFF791
:10021000F5FF00F0C5FC00F0E6F803B4FFF7F2FFCD
:1002200003BC00F0EDF8000009488047094800478A
:10023000FEE7FEE7FEE7FEE7FEE7FEE7FEE7FEE796
:10024000FEE7FEE704480549054A064B70470000F3
:100250006509000889010008D8000020D8060020A0
:10026000D8020020D802002053EA020C00F0698076
:100270002DE9F04B4FF00006002B1FBFB3FA83F5BA
:1002800003FA05F424FA05F65E4012BF1643B2FAEB
:1002900082F502FA05F4C5F120051EBF22FA05FC1D
:1002A00044EA0C04203556EA044C4FEA144418BFC3
:1002B000641C4FF000084FF00009904271EB030CF2
:1002C00039D3002919BFB1FA81F701FA07F6B0FA5C
:1002D00080F700FA07F6C7F120071EBF20FA07FCD7
:1002E00046EA0C062037B6FBF4FCA7EB0507103FE7
:1002F00007F01F0BCBF120062CFA06F60CFA0BFBCD
:1003000044BFB3460026202FA4BF5E464FF0000B2B
:100310005BEA060C08BF4FF0010B19EB0B0948EB29
:100320000608ABFB027C06FB02CC0BFB03CCC01B1C
:1003300071EB0C01C1E70B46024641464846BDE859
:10034000F08B13B5084318BF4FF0FF300146AFF3F1
:100350000080BDE81C40704710B5431C02E010F857
:10036000011B71B18107FAD14FF0013202C88C1A1A
:100370008C4314EAC211F9D0C01A0A0603D0C01E79
:1003800010BDC01A10BD0A0401D0801E10BD0902A4
:10039000FCD0401E10BD704770477047754600F096
:1003A0002BF8AE4605006946534620F00700854607
:1003B00018B020B5FFF746FFBDE820404FF000061B
:1003C0004FF000074FF000084FF0000BAC46ACE8D0
:1003D000C009ACE8C009ACE8C009ACE8C00921F02C
:1003E00007018D46704710B50446AFF300802046E4
:1003F000BDE81040FFF711BF0048704730000020F3
:1004000001491820ABBEFEE726000200704700003D
:100410002DE9F04F83B000F13E4202F1FF724FEA46
:10042000B22241F600470192C4F2020708224FF0BF
:10043000010E00254FF000084FF00009B84208BF38
:10044000072200920AE000BF09F1010908F104083F
:10045000B9F1100F05F1020500F0AC800C680EFA3E
:1004600009FB14EA0B0AEFD04C6804F0030CACF162
:10047000010EBEF1010F17D80322866802FA05F7B4
:10048000CA6826EA0707AA403A4382604268C4F372
:10049000001722EA0B0207FA09F73A434FF0030B61
:1004A00042604FF0010E06E0BCF1030F4FF0010E69
:1004B0004FF0030B1BD0C2688E680BFA05F7BA43E6
:1004C00006FA05F73A43BCF1020FC2600FD16FF094
:1004D000030202EA5902024408F01C060F23176ABD
:1004E00003FA06F40B69A743B3403B431362026867
:1004F0004F680BFA05F39A4307F00303AB401A4326
:1005000017F4403F02609FD00022029243F644025B
:10051000C4F202021346126843F6004442F48042D9
:100520001A601A68C4F2010402F480420292029A2C
:1005300029F003024FF608432244CFF6FF739B468F
:10054000D35808F00C070F26BE4023EA060C019B87
:10055000009E072B38BF1E4606FA07F747EA0C0332
:1005600042F80B30A2684B6842EA0A07DE0258BF25
:1005700022EA0A0743F60C42A760C4F2010294463D
:1005800012689E0242EA0A0758BF22EA0A07CCF81C
:10059000007062689E0342EA0A0758BF22EA0A070F
:1005A00067602268DB0342EA0A0358BF22EA0A03B3
:1005B000236049E703B0BDE8F08F000040F2D400AB
:1005C000C2F200000068704740F2280040F2D401F7
:1005D000C2F20000C2F2000100780A68104408600C
:1005E0007047000080B543F60040C4F20200016885
:1005F00041F400710160016841F4806101600320F1
:1006000000F042F80F2000F005F800F02BF8002071
:1006100080BD0000B0B540F22802C2F2000240F2F4
:1006200024011278C2F200014FF47A730968B3FB17
:10063000F2F20446B1FBF2F1084600F053F80F2C39
:100640004FF001050CD858B94FF0FF302146002279
:10065000002500F009F840F22C00C2F2000004600E
:100660002846B0BD7047000070B514460D460646DA
:1006700000F06CFA2946224600F03EF90146304669
:10068000BDE8704000F06ABA00F07ABA40F2240087
:10069000C2F200000068704780B5FFF7F7FF43F62D
:1006A0000801C4F20201096840F60842C1F3822140
:1006B000C0F60002515CC84080BD000080B5FFF765
:1006C000E5FF43F60801C4F20201096840F608425A
:1006D000C1F34231C0F60002515CC84080BD000049
:1006E0007047000000F01EB9FFF7FABF002804BFF2
:1006F0000120704710B5044690F83D0028B900204D
:1007000084F83C00204600F021F8242084F83D00C5
:100710002068C16821F40051C160204600F06AF9E8
:100720002068016921F490410161416921F02A01A9
:100730004161C16841F40051C16000202021206462
:1007400084F83D1084F83E1010BD00007047000092
:100750002DE9F04381B0054690F83E0020280BD1EA
:100760000E4600294FF0010059D01746002A56D0F6
:1007700095F83C00012803D1022001B0BDE8F083C8
:10078000012085F83C004FF0000922201C46C5F8E6
:10079000409085F83E00C5F83090FFF70FFFAF8519
:1007A000EF85A9680746B1F5805F07D12869002861
:1007B0001CBF30464E46B046064601E04FF00008EA
:1007C00085F83C900AE000BF2868002640686FF377
:1007D0005F2028F8020BE88D0138E885E88DD0B15C
:1007E000284620213A46234600F072F9D0B9002E5F
:1007F000EAD0A868B0F5805F08D008B9286928B1A8
:100800002868406800F07F0002E000BF2868406868
:1008100006F8010BDFE7202085F83E00002001B03C
:10082000BDE8F083032001B0BDE8F0832DE9F0437B
:1008300081B0044690F83D0020280BD10E460029D7
:100840004FF0010055D01746002A52D094F83C00D2
:10085000012803D1022001B0BDE8F083012084F813
:100860003C004FF0000921201D46C4F8409084F858
:100870003D00FFF7A3FEA784E784A1680746B1F512
:10088000805F07D1206900281CBF30464E46B04625
:10089000064601E04FF0000884F83C9007E000BFF6
:1008A00016F8010B21684860E08C0138E084E08C88
:1008B00080B1204680213A462B4600F009F980B9E4
:1008C000002EEDD138F8020B21686FF35F204860ED
:1008D0000026E9E7204640213A462B4600F0F8F88A
:1008E00018B1032001B0BDE8F083202084F83D005A
:1008F000002001B0BDE8F08300F0070080F007039E
:10090000042B28BF04234FF0FF3C03380CFA03F3F9
:1009100038BF0020994381400CFA00F022EA000021
:1009200008437047B0B501380024B4EB106F02D013
:1009300001242046B0BD4EF21005CEF200056860DD
:100940004FF0FF300F2100F009F90720AC6028605C
:100950002046B0BD80B5FFF737FEBDE88040FFF709
:10096000C3BE00004EF68850CEF20000016841F48C
:10097000700101607047000070B586B0002443F636
:1009800030000194C4F2020001680C2541F001011D
:100990000160016844F2004601F0010101910199F2
:1009A00001940169C4F2000641F40031016100695B
:1009B00001A900F4003001900198022001950290F5
:1009C00001200390032004900720059006F5DE30F7
:1009D000FFF71EFD40F29000C2F200004FF41651E6
:1009E0004561C0E90061C0E90244C461FFF77EFED1
:1009F00006B070BD10B504460068D4E902C2236990
:100A0000016921F4405111430161626943EA0C011B
:100A1000E3691143C268194349F20C639A431143D5
:100A2000C1604169A26921F4407141F20043114360
:100A300040F48062C4F201039A42416102D1FFF79F
:100A40003DFE01E0FFF728FEE16963681922B1F578
:100A5000004FA0FB02011CD15A00DB0FFFF704FC82
:100A600048F21F51C5F2EB11A0FB01235A096FF0A8
:100A7000630302FB0300322303EBC000A0FB010170
:100A80004FF4F87000EA111000EB0210C1F34211AC
:100A90001AE09A009B0FFFF7E7FB48F21F51C5F2DF
:100AA000EB11A0FB01235A096FF0630302FB030063
:100AB000322303EB0010A0FB0101F02000EA5110EB
:100AC00000EB0210C1F3431122680843906010BD8F
:100AD0002DE9F0410446006800680840884232D0A1
:100AE0001D460E4690465F1C3FB900BF2068006857
:100AF0003040B04227D0002FF8D02DB1FFF75EFD77
:100B0000A0EB0800A842F1D9206850E8030F216843
:100B100020F4D07041E80302002AF5D1206850E8A3
:100B2000050F216820F0010041E80502002AF5D1F7
:100B3000202084F83D0084F83E00002084F83C002A
:100B40000320BDE8F0810020BDE8F0814EF60C5096
:100B5000CEF200000068C0F3022070474EF6145336
:100B600000F00F02CEF2000309011A4400F16043C5
:100B7000B0F1FF3FC8BF03F5644211707047000039
:100B80004EF60C51CEF200010A684FF6FF031A40F0
:100B900060F30A2242F0806040F0FD700860704708
:100BA00082B0FFF71FFDFFF7E7FE40F20005C2F23B
:100BB00000052846FFF7D0FB40F29004C2F2000483
:100BC00082B2204629460A23FFF730FE01AD00BF5E
:100BD0002046294604224FF0FF33FFF7B9FD204697
:100BE000294604224FF0FF33FFF720FEF0E7F1EE35
:100BF000100A4FF6FF71C0F2C03120EA010040F048
:100C00004070E1EE100A704700000000010203048A
:100C1000300C00080000002030000000C401000873
:100C2000600C000830000020A8060000E001000869
:100C3000577269746520616E797468696E67206F98
:100C40006E2053657269616C205465726D696E61C6
:100C50006C0D0A000024F4000100000010000000E8
:040000050800018965
:00000001FF
